{
  "contractName": "Students",
  "abi": [
    {
      "anonymous": false,
      "inputs": [
        {
          "indexed": false,
          "name": "id",
          "type": "int256"
        },
        {
          "indexed": false,
          "name": "name",
          "type": "string"
        },
        {
          "indexed": false,
          "name": "courseName",
          "type": "string"
        }
      ],
      "name": "StudentAdded",
      "type": "event",
      "signature": "0x4188b4310d16b606c52a852ac73bd037a416e10702f6c6155e4b48d87996ace3"
    },
    {
      "constant": false,
      "inputs": [
        {
          "name": "id",
          "type": "int256"
        },
        {
          "name": "name",
          "type": "string"
        },
        {
          "name": "courseName",
          "type": "string"
        }
      ],
      "name": "addStudent",
      "outputs": [],
      "payable": false,
      "stateMutability": "nonpayable",
      "type": "function",
      "signature": "0x91c47097"
    },
    {
      "constant": true,
      "inputs": [
        {
          "name": "id",
          "type": "int256"
        }
      ],
      "name": "getStudent",
      "outputs": [
        {
          "name": "",
          "type": "string"
        },
        {
          "name": "",
          "type": "string"
        }
      ],
      "payable": false,
      "stateMutability": "view",
      "type": "function",
      "signature": "0xce54417d"
    }
  ],
  "bytecode": "0x608060405234801561001057600080fd5b506106a4806100206000396000f3fe60806040526004361061004c576000357c0100000000000000000000000000000000000000000000000000000000900463ffffffff16806391c4709714610051578063ce54417d146101ba575b600080fd5b34801561005d57600080fd5b506101b86004803603606081101561007457600080fd5b81019080803590602001909291908035906020019064010000000081111561009b57600080fd5b8201836020820111156100ad57600080fd5b803590602001918460018302840111640100000000831117156100cf57600080fd5b91908080601f016020809104026020016040519081016040528093929190818152602001838380828437600081840152601f19601f8201169050808301925050505050505091929192908035906020019064010000000081111561013257600080fd5b82018360208201111561014457600080fd5b8035906020019184600183028401116401000000008311171561016657600080fd5b91908080601f016020809104026020016040519081016040528093929190818152602001838380828437600081840152601f19601f8201169050808301925050505050505091929192905050506102da565b005b3480156101c657600080fd5b506101f3600480360360208110156101dd57600080fd5b8101908080359060200190929190505050610465565b604051808060200180602001838103835285818151815260200191508051906020019080838360005b8381101561023757808201518184015260208101905061021c565b50505050905090810190601f1680156102645780820380516001836020036101000a031916815260200191505b50838103825284818151815260200191508051906020019080838360005b8381101561029d578082015181840152602081019050610282565b50505050905090810190601f1680156102ca5780820380516001836020036101000a031916815260200191505b5094505050505060405180910390f35b6060604051908101604052808481526020018381526020018281525060008085815260200190815260200160002060008201518160000155602082015181600101908051906020019061032e9291906105d3565b50604082015181600201908051906020019061034b9291906105d3565b509050507f4188b4310d16b606c52a852ac73bd037a416e10702f6c6155e4b48d87996ace3838383604051808481526020018060200180602001838103835285818151815260200191508051906020019080838360005b838110156103bd5780820151818401526020810190506103a2565b50505050905090810190601f1680156103ea5780820380516001836020036101000a031916815260200191505b50838103825284818151815260200191508051906020019080838360005b83811015610423578082015181840152602081019050610408565b50505050905090810190601f1680156104505780820380516001836020036101000a031916815260200191505b509550505050505060405180910390a1505050565b606080600080848152602001908152602001600020600101600080858152602001908152602001600020600201818054600181600116156101000203166002900480601f0160208091040260200160405190810160405280929190818152602001828054600181600116156101000203166002900480156105275780601f106104fc57610100808354040283529160200191610527565b820191906000526020600020905b81548152906001019060200180831161050a57829003601f168201915b50505050509150808054600181600116156101000203166002900480601f0160208091040260200160405190810160405280929190818152602001828054600181600116156101000203166002900480156105c35780601f10610598576101008083540402835291602001916105c3565b820191906000526020600020905b8154815290600101906020018083116105a657829003601f168201915b5050505050905091509150915091565b828054600181600116156101000203166002900490600052602060002090601f016020900481019282601f1061061457805160ff1916838001178555610642565b82800160010185558215610642579182015b82811115610641578251825591602001919060010190610626565b5b50905061064f9190610653565b5090565b61067591905b80821115610671576000816000905550600101610659565b5090565b9056fea165627a7a72305820e01fa4357b95f5e4e9ad75cc11797cca29001d628d9a244520db9e427698e0850029",
  "source": "// SPDX-License-Identifier: MIT\r\n\r\npragma solidity >=0.4.17 <=0.8.9;\r\n\r\ncontract Students{\r\n    \r\n    struct Student{\r\n        int studentId;\r\n        string studentName;\r\n        string courseName;\r\n    }\r\n\r\n    event StudentAdded(int id,string name,string courseName);\r\n\r\n    mapping(int => Student) StudentMapping;\r\n\r\n    function addStudent(int id,string memory name,string memory courseName) public {\r\n\r\n        StudentMapping[id] =  Student(id,name,courseName);\r\n\r\n        emit StudentAdded(id, name, courseName);\r\n  \r\n    }\r\n\r\n    function getStudent(int id) public view returns(string memory,string memory){\r\n        return (StudentMapping[id].studentName,StudentMapping[id].courseName);\r\n    }\r\n\r\n}\r\n\r\n",
  "sourcePath": "C:/Users/HP/Desktop/studnet-dapp/contracts/Students.sol",
  "compiler": {
    "name": "solc",
    "version": "0.5.0+commit.1d4f565a.Emscripten.clang"
  },
  "schemaVersion": "3.0.1",
  "updatedAt": "2021-10-09T07:31:33.250Z",
  "devdoc": {
    "methods": {}
  },
  "userdoc": {
    "methods": {}
  }
}